{
  "contractName": "IndexSwap",
  "abi": [
    {
      "inputs": [],
      "stateMutability": "nonpayable",
      "type": "constructor"
    },
    {
      "inputs": [
        {
          "internalType": "address",
          "name": "",
          "type": "address"
        }
      ],
      "name": "aaveBalance",
      "outputs": [
        {
          "internalType": "uint256",
          "name": "",
          "type": "uint256"
        }
      ],
      "stateMutability": "view",
      "type": "function"
    },
    {
      "inputs": [
        {
          "internalType": "address",
          "name": "",
          "type": "address"
        }
      ],
      "name": "btcBalance",
      "outputs": [
        {
          "internalType": "uint256",
          "name": "",
          "type": "uint256"
        }
      ],
      "stateMutability": "view",
      "type": "function"
    },
    {
      "inputs": [],
      "name": "currentRate",
      "outputs": [
        {
          "internalType": "uint256",
          "name": "numerator",
          "type": "uint256"
        },
        {
          "internalType": "uint256",
          "name": "denominator",
          "type": "uint256"
        }
      ],
      "stateMutability": "view",
      "type": "function"
    },
    {
      "inputs": [
        {
          "internalType": "address",
          "name": "",
          "type": "address"
        }
      ],
      "name": "daiBalance",
      "outputs": [
        {
          "internalType": "uint256",
          "name": "",
          "type": "uint256"
        }
      ],
      "stateMutability": "view",
      "type": "function"
    },
    {
      "inputs": [],
      "name": "defiToken",
      "outputs": [
        {
          "internalType": "contract IToken",
          "name": "",
          "type": "address"
        }
      ],
      "stateMutability": "view",
      "type": "function"
    },
    {
      "inputs": [
        {
          "internalType": "address",
          "name": "",
          "type": "address"
        }
      ],
      "name": "ethBalance",
      "outputs": [
        {
          "internalType": "uint256",
          "name": "",
          "type": "uint256"
        }
      ],
      "stateMutability": "view",
      "type": "function"
    },
    {
      "inputs": [
        {
          "internalType": "address",
          "name": "",
          "type": "address"
        }
      ],
      "name": "linkBalance",
      "outputs": [
        {
          "internalType": "uint256",
          "name": "",
          "type": "uint256"
        }
      ],
      "stateMutability": "view",
      "type": "function"
    },
    {
      "inputs": [
        {
          "internalType": "address",
          "name": "",
          "type": "address"
        }
      ],
      "name": "ltcBalance",
      "outputs": [
        {
          "internalType": "uint256",
          "name": "",
          "type": "uint256"
        }
      ],
      "stateMutability": "view",
      "type": "function"
    },
    {
      "inputs": [
        {
          "internalType": "address",
          "name": "",
          "type": "address"
        }
      ],
      "name": "makerBalance",
      "outputs": [
        {
          "internalType": "uint256",
          "name": "",
          "type": "uint256"
        }
      ],
      "stateMutability": "view",
      "type": "function"
    },
    {
      "inputs": [],
      "name": "pancakeSwapRouter",
      "outputs": [
        {
          "internalType": "contract IPancakeRouter02",
          "name": "",
          "type": "address"
        }
      ],
      "stateMutability": "view",
      "type": "function"
    },
    {
      "inputs": [
        {
          "internalType": "address",
          "name": "",
          "type": "address"
        }
      ],
      "name": "shibaBalance",
      "outputs": [
        {
          "internalType": "uint256",
          "name": "",
          "type": "uint256"
        }
      ],
      "stateMutability": "view",
      "type": "function"
    },
    {
      "inputs": [
        {
          "internalType": "address",
          "name": "",
          "type": "address"
        }
      ],
      "name": "uniBalance",
      "outputs": [
        {
          "internalType": "uint256",
          "name": "",
          "type": "uint256"
        }
      ],
      "stateMutability": "view",
      "type": "function"
    },
    {
      "inputs": [
        {
          "internalType": "address",
          "name": "",
          "type": "address"
        }
      ],
      "name": "xrpBalance",
      "outputs": [
        {
          "internalType": "uint256",
          "name": "",
          "type": "uint256"
        }
      ],
      "stateMutability": "view",
      "type": "function"
    },
    {
      "stateMutability": "payable",
      "type": "receive"
    },
    {
      "inputs": [
        {
          "internalType": "uint256",
          "name": "_numerator",
          "type": "uint256"
        },
        {
          "internalType": "uint256",
          "name": "_denominator",
          "type": "uint256"
        }
      ],
      "name": "updateRate",
      "outputs": [],
      "stateMutability": "nonpayable",
      "type": "function"
    },
    {
      "inputs": [
        {
          "internalType": "uint256",
          "name": "btc",
          "type": "uint256"
        },
        {
          "internalType": "uint256",
          "name": "eth",
          "type": "uint256"
        },
        {
          "internalType": "uint256",
          "name": "shiba",
          "type": "uint256"
        },
        {
          "internalType": "uint256",
          "name": "xrp",
          "type": "uint256"
        },
        {
          "internalType": "uint256",
          "name": "ltc",
          "type": "uint256"
        },
        {
          "internalType": "uint256",
          "name": "dai",
          "type": "uint256"
        },
        {
          "internalType": "uint256",
          "name": "maker",
          "type": "uint256"
        },
        {
          "internalType": "uint256",
          "name": "link",
          "type": "uint256"
        },
        {
          "internalType": "uint256",
          "name": "uni",
          "type": "uint256"
        },
        {
          "internalType": "uint256",
          "name": "aave",
          "type": "uint256"
        },
        {
          "internalType": "address",
          "name": "user",
          "type": "address"
        }
      ],
      "name": "setUpDataDeFi",
      "outputs": [],
      "stateMutability": "nonpayable",
      "type": "function"
    },
    {
      "inputs": [
        {
          "internalType": "uint256",
          "name": "btc",
          "type": "uint256"
        },
        {
          "internalType": "uint256",
          "name": "eth",
          "type": "uint256"
        },
        {
          "internalType": "uint256",
          "name": "shiba",
          "type": "uint256"
        },
        {
          "internalType": "uint256",
          "name": "xrp",
          "type": "uint256"
        },
        {
          "internalType": "uint256",
          "name": "ltc",
          "type": "uint256"
        },
        {
          "internalType": "uint256",
          "name": "dai",
          "type": "uint256"
        },
        {
          "internalType": "uint256",
          "name": "maker",
          "type": "uint256"
        },
        {
          "internalType": "uint256",
          "name": "link",
          "type": "uint256"
        },
        {
          "internalType": "uint256",
          "name": "uni",
          "type": "uint256"
        },
        {
          "internalType": "uint256",
          "name": "aave",
          "type": "uint256"
        },
        {
          "internalType": "address",
          "name": "user",
          "type": "address"
        }
      ],
      "name": "editDataDeFi",
      "outputs": [],
      "stateMutability": "nonpayable",
      "type": "function"
    },
    {
      "inputs": [],
      "name": "investInFundDefi",
      "outputs": [],
      "stateMutability": "payable",
      "type": "function"
    },
    {
      "inputs": [
        {
          "internalType": "uint256",
          "name": "tokenAmount",
          "type": "uint256"
        }
      ],
      "name": "withdrawFromFundTOPTokens",
      "outputs": [],
      "stateMutability": "payable",
      "type": "function"
    },
    {
      "inputs": [
        {
          "internalType": "address",
          "name": "crypto",
          "type": "address"
        }
      ],
      "name": "getPathForETH",
      "outputs": [
        {
          "internalType": "address[]",
          "name": "",
          "type": "address[]"
        }
      ],
      "stateMutability": "view",
      "type": "function"
    },
    {
      "inputs": [
        {
          "internalType": "address",
          "name": "token",
          "type": "address"
        }
      ],
      "name": "getPathForToken",
      "outputs": [
        {
          "internalType": "address[]",
          "name": "",
          "type": "address[]"
        }
      ],
      "stateMutability": "view",
      "type": "function"
    },
    {
      "inputs": [],
      "name": "getETH",
      "outputs": [
        {
          "internalType": "address",
          "name": "",
          "type": "address"
        }
      ],
      "stateMutability": "view",
      "type": "function"
    }
  ],
  "bytecode": "0x6080604052736056773c28c258425cf9bc8ba5f86b8031863164600160006101000a81548173ffffffffffffffffffffffffffffffffffffffff021916908373ffffffffffffffffffffffffffffffffffffffff160217905550737130d2a12b9bcbfae4f2634d864a1ee1ce3ead9c600260006101000a81548173ffffffffffffffffffffffffffffffffffffffff021916908373ffffffffffffffffffffffffffffffffffffffff160217905550732170ed0880ac9a755fd29b2688956bd959f933f8600360006101000a81548173ffffffffffffffffffffffffffffffffffffffff021916908373ffffffffffffffffffffffffffffffffffffffff160217905550732859e4544c4bb03966803b044a93563bd2d0dd4d600460006101000a81548173ffffffffffffffffffffffffffffffffffffffff021916908373ffffffffffffffffffffffffffffffffffffffff160217905550731d2f0da169ceb9fc7b3144628db156f3f6c60dbe600560006101000a81548173ffffffffffffffffffffffffffffffffffffffff021916908373ffffffffffffffffffffffffffffffffffffffff160217905550734338665cbb7b2485a8855a139b75d5e34ab0db94600660006101000a81548173ffffffffffffffffffffffffffffffffffffffff021916908373ffffffffffffffffffffffffffffffffffffffff160217905550731af3f329e8be154074d8769d1ffa4ee058b1dbc3600760006101000a81548173ffffffffffffffffffffffffffffffffffffffff021916908373ffffffffffffffffffffffffffffffffffffffff160217905550735f0da599bb2cccfcf6fdfd7d81743b6020864350600860006101000a81548173ffffffffffffffffffffffffffffffffffffffff021916908373ffffffffffffffffffffffffffffffffffffffff16021790555073f8a0bf9cf54bb92f17374d9e9a321e6a111a51bd600960006101000a81548173ffffffffffffffffffffffffffffffffffffffff021916908373ffffffffffffffffffffffffffffffffffffffff16021790555073bf5140a22578168fd562dccf235e5d43a02ce9b1600a60006101000a81548173ffffffffffffffffffffffffffffffffffffffff021916908373ffffffffffffffffffffffffffffffffffffffff16021790555073fb6115445bff7b52feb98650c87f44907e58f802600b60006101000a81548173ffffffffffffffffffffffffffffffffffffffff021916908373ffffffffffffffffffffffffffffffffffffffff1602179055503480156103b757600080fd5b507310ed43c718714eb63d5aa57b78b54704e256024e6000806101000a81548173ffffffffffffffffffffffffffffffffffffffff021916908373ffffffffffffffffffffffffffffffffffffffff160217905550736e49456f284e3da7f1515eee120e2706cab69fd5600c60006101000a81548173ffffffffffffffffffffffffffffffffffffffff021916908373ffffffffffffffffffffffffffffffffffffffff16021790555061470f806104706000396000f3fe60806040526004361061012e5760003560e01c8063b13f2552116100ab578063d8f3790f1161006f578063d8f3790f1461042d578063dcee6b591461046a578063e0c025dd14610493578063ea987a1e146104d0578063eb147149146104fb578063f9f8bdb71461053857610135565b8063b13f2552146102fc578063c585f87514610339578063ca0e7ed514610376578063ca91c0e9146103b3578063d7f7098f146103f057610135565b8063405abb41116100f2578063405abb41146102145780634453afd71461023d5780636fc1c5531461026657806385f90d3d146102a3578063b0849c1c146102bf57610135565b806314f6c3be1461013a57806319effc6814610165578063245589951461016f57806335b9d2db1461019a578063391bfa74146101d757610135565b3661013557005b600080fd5b34801561014657600080fd5b5061014f610564565b60405161015c9190614143565b60405180910390f35b61016d61060a565b005b34801561017b57600080fd5b506101846115b9565b60405161019191906141e0565b60405180910390f35b3480156101a657600080fd5b506101c160048036038101906101bc9190613cdf565b6115dd565b6040516101ce91906142c2565b60405180910390f35b3480156101e357600080fd5b506101fe60048036038101906101f99190613cdf565b6115f5565b60405161020b91906142c2565b60405180910390f35b34801561022057600080fd5b5061023b60048036038101906102369190613dc4565b61160d565b005b34801561024957600080fd5b50610264600480360381019061025f9190613e00565b611641565b005b34801561027257600080fd5b5061028d60048036038101906102889190613cdf565b611bda565b60405161029a91906142c2565b60405180910390f35b6102bd60048036038101906102b89190613d9b565b611bf2565b005b3480156102cb57600080fd5b506102e660048036038101906102e19190613cdf565b612ec0565b6040516102f391906141be565b60405180910390f35b34801561030857600080fd5b50610323600480360381019061031e9190613cdf565b6130c6565b60405161033091906142c2565b60405180910390f35b34801561034557600080fd5b50610360600480360381019061035b9190613cdf565b6130de565b60405161036d91906142c2565b60405180910390f35b34801561038257600080fd5b5061039d60048036038101906103989190613cdf565b6130f6565b6040516103aa91906141be565b60405180910390f35b3480156103bf57600080fd5b506103da60048036038101906103d59190613cdf565b6132fc565b6040516103e791906142c2565b60405180910390f35b3480156103fc57600080fd5b5061041760048036038101906104129190613cdf565b613314565b60405161042491906142c2565b60405180910390f35b34801561043957600080fd5b50610454600480360381019061044f9190613cdf565b61332c565b60405161046191906142c2565b60405180910390f35b34801561047657600080fd5b50610491600480360381019061048c9190613e00565b613344565b005b34801561049f57600080fd5b506104ba60048036038101906104b59190613cdf565b6138dd565b6040516104c791906142c2565b60405180910390f35b3480156104dc57600080fd5b506104e56138f5565b6040516104f291906141fb565b60405180910390f35b34801561050757600080fd5b50610522600480360381019061051d9190613cdf565b61391b565b60405161052f91906142c2565b60405180910390f35b34801561054457600080fd5b5061054d613933565b60405161055b929190614337565b60405180910390f35b60008060009054906101000a900473ffffffffffffffffffffffffffffffffffffffff1673ffffffffffffffffffffffffffffffffffffffff1663ad5c46486040518163ffffffff1660e01b815260040160206040518083038186803b1580156105cd57600080fd5b505afa1580156105e1573d6000803e3d6000fd5b505050506040513d601f19601f820116820180604052508101906106059190613d08565b905090565b600c60009054906101000a900473ffffffffffffffffffffffffffffffffffffffff1673ffffffffffffffffffffffffffffffffffffffff1663095ea7b330346040518363ffffffff1660e01b8152600401610667929190614195565b602060405180830381600087803b15801561068157600080fd5b505af1158015610695573d6000803e3d6000fd5b505050506040513d601f19601f820116820180604052508101906106b99190613d72565b506106c560648061160d565b6060806060806060806060806060806000600f426106e3919061441d565b905060008054906101000a900473ffffffffffffffffffffffffffffffffffffffff1673ffffffffffffffffffffffffffffffffffffffff16637ff36ab5600a3461072e9190614473565b600061075b600260009054906101000a900473ffffffffffffffffffffffffffffffffffffffff16612ec0565b600160009054906101000a900473ffffffffffffffffffffffffffffffffffffffff16866040518663ffffffff1660e01b815260040161079e9493929190614216565b6000604051808303818588803b1580156107b757600080fd5b505af11580156107cb573d6000803e3d6000fd5b50505050506040513d6000823e3d601f19601f820116820180604052508101906107f59190613d31565b9a5060008054906101000a900473ffffffffffffffffffffffffffffffffffffffff1673ffffffffffffffffffffffffffffffffffffffff16637ff36ab5600a346108409190614473565b600061086d600360009054906101000a900473ffffffffffffffffffffffffffffffffffffffff16612ec0565b600160009054906101000a900473ffffffffffffffffffffffffffffffffffffffff16866040518663ffffffff1660e01b81526004016108b09493929190614216565b6000604051808303818588803b1580156108c957600080fd5b505af11580156108dd573d6000803e3d6000fd5b50505050506040513d6000823e3d601f19601f820116820180604052508101906109079190613d31565b995060008054906101000a900473ffffffffffffffffffffffffffffffffffffffff1673ffffffffffffffffffffffffffffffffffffffff16637ff36ab5600a346109529190614473565b600061097f600460009054906101000a900473ffffffffffffffffffffffffffffffffffffffff16612ec0565b600160009054906101000a900473ffffffffffffffffffffffffffffffffffffffff16866040518663ffffffff1660e01b81526004016109c29493929190614216565b6000604051808303818588803b1580156109db57600080fd5b505af11580156109ef573d6000803e3d6000fd5b50505050506040513d6000823e3d601f19601f82011682018060405250810190610a199190613d31565b985060008054906101000a900473ffffffffffffffffffffffffffffffffffffffff1673ffffffffffffffffffffffffffffffffffffffff16637ff36ab5600a34610a649190614473565b6000610a91600560009054906101000a900473ffffffffffffffffffffffffffffffffffffffff16612ec0565b600160009054906101000a900473ffffffffffffffffffffffffffffffffffffffff16866040518663ffffffff1660e01b8152600401610ad49493929190614216565b6000604051808303818588803b158015610aed57600080fd5b505af1158015610b01573d6000803e3d6000fd5b50505050506040513d6000823e3d601f19601f82011682018060405250810190610b2b9190613d31565b975060008054906101000a900473ffffffffffffffffffffffffffffffffffffffff1673ffffffffffffffffffffffffffffffffffffffff16637ff36ab5600a34610b769190614473565b6000610ba3600660009054906101000a900473ffffffffffffffffffffffffffffffffffffffff16612ec0565b600160009054906101000a900473ffffffffffffffffffffffffffffffffffffffff16866040518663ffffffff1660e01b8152600401610be69493929190614216565b6000604051808303818588803b158015610bff57600080fd5b505af1158015610c13573d6000803e3d6000fd5b50505050506040513d6000823e3d601f19601f82011682018060405250810190610c3d9190613d31565b965060008054906101000a900473ffffffffffffffffffffffffffffffffffffffff1673ffffffffffffffffffffffffffffffffffffffff16637ff36ab5600a34610c889190614473565b6000610cb5600760009054906101000a900473ffffffffffffffffffffffffffffffffffffffff16612ec0565b600160009054906101000a900473ffffffffffffffffffffffffffffffffffffffff16866040518663ffffffff1660e01b8152600401610cf89493929190614216565b6000604051808303818588803b158015610d1157600080fd5b505af1158015610d25573d6000803e3d6000fd5b50505050506040513d6000823e3d601f19601f82011682018060405250810190610d4f9190613d31565b955060008054906101000a900473ffffffffffffffffffffffffffffffffffffffff1673ffffffffffffffffffffffffffffffffffffffff16637ff36ab5600a34610d9a9190614473565b6000610dc7600860009054906101000a900473ffffffffffffffffffffffffffffffffffffffff16612ec0565b600160009054906101000a900473ffffffffffffffffffffffffffffffffffffffff16866040518663ffffffff1660e01b8152600401610e0a9493929190614216565b6000604051808303818588803b158015610e2357600080fd5b505af1158015610e37573d6000803e3d6000fd5b50505050506040513d6000823e3d601f19601f82011682018060405250810190610e619190613d31565b945060008054906101000a900473ffffffffffffffffffffffffffffffffffffffff1673ffffffffffffffffffffffffffffffffffffffff16637ff36ab5600a34610eac9190614473565b6000610ed9600960009054906101000a900473ffffffffffffffffffffffffffffffffffffffff16612ec0565b600160009054906101000a900473ffffffffffffffffffffffffffffffffffffffff16866040518663ffffffff1660e01b8152600401610f1c9493929190614216565b6000604051808303818588803b158015610f3557600080fd5b505af1158015610f49573d6000803e3d6000fd5b50505050506040513d6000823e3d601f19601f82011682018060405250810190610f739190613d31565b935060008054906101000a900473ffffffffffffffffffffffffffffffffffffffff1673ffffffffffffffffffffffffffffffffffffffff16637ff36ab5600a34610fbe9190614473565b6000610feb600a60009054906101000a900473ffffffffffffffffffffffffffffffffffffffff16612ec0565b600160009054906101000a900473ffffffffffffffffffffffffffffffffffffffff16866040518663ffffffff1660e01b815260040161102e9493929190614216565b6000604051808303818588803b15801561104757600080fd5b505af115801561105b573d6000803e3d6000fd5b50505050506040513d6000823e3d601f19601f820116820180604052508101906110859190613d31565b925060008054906101000a900473ffffffffffffffffffffffffffffffffffffffff1673ffffffffffffffffffffffffffffffffffffffff16637ff36ab5600a346110d09190614473565b60006110fd600b60009054906101000a900473ffffffffffffffffffffffffffffffffffffffff16612ec0565b600160009054906101000a900473ffffffffffffffffffffffffffffffffffffffff16866040518663ffffffff1660e01b81526004016111409493929190614216565b6000604051808303818588803b15801561115957600080fd5b505af115801561116d573d6000803e3d6000fd5b50505050506040513d6000823e3d601f19601f820116820180604052508101906111979190613d31565b91506114368b6001815181106111d6577f4e487b7100000000000000000000000000000000000000000000000000000000600052603260045260246000fd5b60200260200101518b600181518110611218577f4e487b7100000000000000000000000000000000000000000000000000000000600052603260045260246000fd5b60200260200101518b60018151811061125a577f4e487b7100000000000000000000000000000000000000000000000000000000600052603260045260246000fd5b60200260200101518b60018151811061129c577f4e487b7100000000000000000000000000000000000000000000000000000000600052603260045260246000fd5b60200260200101518b6001815181106112de577f4e487b7100000000000000000000000000000000000000000000000000000000600052603260045260246000fd5b60200260200101518b600181518110611320577f4e487b7100000000000000000000000000000000000000000000000000000000600052603260045260246000fd5b60200260200101518b600181518110611362577f4e487b7100000000000000000000000000000000000000000000000000000000600052603260045260246000fd5b60200260200101518b6001815181106113a4577f4e487b7100000000000000000000000000000000000000000000000000000000600052603260045260246000fd5b60200260200101518b6001815181106113e6577f4e487b7100000000000000000000000000000000000000000000000000000000600052603260045260246000fd5b60200260200101518b600181518110611428577f4e487b7100000000000000000000000000000000000000000000000000000000600052603260045260246000fd5b602002602001015133611641565b6000349050600061146c60186001015461145e6018600001548561394590919063ffffffff16565b61395b90919063ffffffff16565b9050600c60009054906101000a900473ffffffffffffffffffffffffffffffffffffffff1673ffffffffffffffffffffffffffffffffffffffff166340c10f1933836040518363ffffffff1660e01b81526004016114cb929190614195565b600060405180830381600087803b1580156114e557600080fd5b505af11580156114f9573d6000803e3d6000fd5b5050505060003373ffffffffffffffffffffffffffffffffffffffff16476040516115239061412e565b60006040518083038185875af1925050503d8060008114611560576040519150601f19603f3d011682016040523d82523d6000602084013e611565565b606091505b50509050806115a9576040517f08c379a00000000000000000000000000000000000000000000000000000000081526004016115a0906142a2565b60405180910390fd5b5050505050505050505050505050565b60008054906101000a900473ffffffffffffffffffffffffffffffffffffffff1681565b600f6020528060005260406000206000915090505481565b600d6020528060005260406000206000915090505481565b600082141561161b57600080fd5b600081141561162957600080fd5b81601860000181905550806018600101819055505050565b8a600d60008373ffffffffffffffffffffffffffffffffffffffff1673ffffffffffffffffffffffffffffffffffffffff1681526020019081526020016000205461168c919061441d565b600d60008373ffffffffffffffffffffffffffffffffffffffff1673ffffffffffffffffffffffffffffffffffffffff1681526020019081526020016000208190555089600e60008373ffffffffffffffffffffffffffffffffffffffff1673ffffffffffffffffffffffffffffffffffffffff1681526020019081526020016000205461171a919061441d565b600e60008373ffffffffffffffffffffffffffffffffffffffff1673ffffffffffffffffffffffffffffffffffffffff1681526020019081526020016000208190555088600f60008373ffffffffffffffffffffffffffffffffffffffff1673ffffffffffffffffffffffffffffffffffffffff168152602001908152602001600020546117a8919061441d565b600f60008373ffffffffffffffffffffffffffffffffffffffff1673ffffffffffffffffffffffffffffffffffffffff1681526020019081526020016000208190555087601060008373ffffffffffffffffffffffffffffffffffffffff1673ffffffffffffffffffffffffffffffffffffffff16815260200190815260200160002054611836919061441d565b601060008373ffffffffffffffffffffffffffffffffffffffff1673ffffffffffffffffffffffffffffffffffffffff1681526020019081526020016000208190555086601160008373ffffffffffffffffffffffffffffffffffffffff1673ffffffffffffffffffffffffffffffffffffffff168152602001908152602001600020546118c4919061441d565b601160008373ffffffffffffffffffffffffffffffffffffffff1673ffffffffffffffffffffffffffffffffffffffff1681526020019081526020016000208190555085601260008373ffffffffffffffffffffffffffffffffffffffff1673ffffffffffffffffffffffffffffffffffffffff16815260200190815260200160002054611952919061441d565b601260008373ffffffffffffffffffffffffffffffffffffffff1673ffffffffffffffffffffffffffffffffffffffff1681526020019081526020016000208190555084601360008373ffffffffffffffffffffffffffffffffffffffff1673ffffffffffffffffffffffffffffffffffffffff168152602001908152602001600020546119e0919061441d565b601360008373ffffffffffffffffffffffffffffffffffffffff1673ffffffffffffffffffffffffffffffffffffffff1681526020019081526020016000208190555083601460008373ffffffffffffffffffffffffffffffffffffffff1673ffffffffffffffffffffffffffffffffffffffff16815260200190815260200160002054611a6e919061441d565b601460008373ffffffffffffffffffffffffffffffffffffffff1673ffffffffffffffffffffffffffffffffffffffff1681526020019081526020016000208190555082601560008373ffffffffffffffffffffffffffffffffffffffff1673ffffffffffffffffffffffffffffffffffffffff16815260200190815260200160002054611afc919061441d565b601560008373ffffffffffffffffffffffffffffffffffffffff1673ffffffffffffffffffffffffffffffffffffffff1681526020019081526020016000208190555081601660008373ffffffffffffffffffffffffffffffffffffffff1673ffffffffffffffffffffffffffffffffffffffff16815260200190815260200160002054611b8a919061441d565b601660008373ffffffffffffffffffffffffffffffffffffffff1673ffffffffffffffffffffffffffffffffffffffff168152602001908152602001600020819055505050505050505050505050565b60156020528060005260406000206000915090505481565b6000600d60003373ffffffffffffffffffffffffffffffffffffffff1673ffffffffffffffffffffffffffffffffffffffff1681526020019081526020016000205490506000600e60003373ffffffffffffffffffffffffffffffffffffffff1673ffffffffffffffffffffffffffffffffffffffff1681526020019081526020016000205490506000600f60003373ffffffffffffffffffffffffffffffffffffffff1673ffffffffffffffffffffffffffffffffffffffff1681526020019081526020016000205490506000601060003373ffffffffffffffffffffffffffffffffffffffff1673ffffffffffffffffffffffffffffffffffffffff1681526020019081526020016000205490506000601160003373ffffffffffffffffffffffffffffffffffffffff1673ffffffffffffffffffffffffffffffffffffffff1681526020019081526020016000205490506000601260003373ffffffffffffffffffffffffffffffffffffffff1673ffffffffffffffffffffffffffffffffffffffff1681526020019081526020016000205490506000601360003373ffffffffffffffffffffffffffffffffffffffff1673ffffffffffffffffffffffffffffffffffffffff1681526020019081526020016000205490506000601460003373ffffffffffffffffffffffffffffffffffffffff1673ffffffffffffffffffffffffffffffffffffffff1681526020019081526020016000205490506000601560003373ffffffffffffffffffffffffffffffffffffffff1673ffffffffffffffffffffffffffffffffffffffff1681526020019081526020016000205490506000601660003373ffffffffffffffffffffffffffffffffffffffff1673ffffffffffffffffffffffffffffffffffffffff168152602001908152602001600020549050611ec8600c60009054906101000a900473ffffffffffffffffffffffffffffffffffffffff1633308e613971565b611ef5600c60009054906101000a900473ffffffffffffffffffffffffffffffffffffffff16308d613aaa565b600c60009054906101000a900473ffffffffffffffffffffffffffffffffffffffff1673ffffffffffffffffffffffffffffffffffffffff16639dc29fac308d6040518363ffffffff1660e01b8152600401611f52929190614195565b600060405180830381600087803b158015611f6c57600080fd5b505af1158015611f80573d6000803e3d6000fd5b50505050611fd4600260009054906101000a900473ffffffffffffffffffffffffffffffffffffffff16600160009054906101000a900473ffffffffffffffffffffffffffffffffffffffff16308d613971565b612021600260009054906101000a900473ffffffffffffffffffffffffffffffffffffffff1660008054906101000a900473ffffffffffffffffffffffffffffffffffffffff168c613aaa565b612071600360009054906101000a900473ffffffffffffffffffffffffffffffffffffffff16600160009054906101000a900473ffffffffffffffffffffffffffffffffffffffff16308c613971565b6120be600360009054906101000a900473ffffffffffffffffffffffffffffffffffffffff1660008054906101000a900473ffffffffffffffffffffffffffffffffffffffff168b613aaa565b61210e600460009054906101000a900473ffffffffffffffffffffffffffffffffffffffff16600160009054906101000a900473ffffffffffffffffffffffffffffffffffffffff16308b613971565b61215b600460009054906101000a900473ffffffffffffffffffffffffffffffffffffffff1660008054906101000a900473ffffffffffffffffffffffffffffffffffffffff168a613aaa565b6121ab600560009054906101000a900473ffffffffffffffffffffffffffffffffffffffff16600160009054906101000a900473ffffffffffffffffffffffffffffffffffffffff16308a613971565b6121f8600560009054906101000a900473ffffffffffffffffffffffffffffffffffffffff1660008054906101000a900473ffffffffffffffffffffffffffffffffffffffff1689613aaa565b612248600660009054906101000a900473ffffffffffffffffffffffffffffffffffffffff16600160009054906101000a900473ffffffffffffffffffffffffffffffffffffffff163089613971565b612295600660009054906101000a900473ffffffffffffffffffffffffffffffffffffffff1660008054906101000a900473ffffffffffffffffffffffffffffffffffffffff1688613aaa565b6122e5600760009054906101000a900473ffffffffffffffffffffffffffffffffffffffff16600160009054906101000a900473ffffffffffffffffffffffffffffffffffffffff163088613971565b612332600760009054906101000a900473ffffffffffffffffffffffffffffffffffffffff1660008054906101000a900473ffffffffffffffffffffffffffffffffffffffff1687613aaa565b612382600860009054906101000a900473ffffffffffffffffffffffffffffffffffffffff16600160009054906101000a900473ffffffffffffffffffffffffffffffffffffffff163087613971565b6123cf600860009054906101000a900473ffffffffffffffffffffffffffffffffffffffff1660008054906101000a900473ffffffffffffffffffffffffffffffffffffffff1686613aaa565b61241f600960009054906101000a900473ffffffffffffffffffffffffffffffffffffffff16600160009054906101000a900473ffffffffffffffffffffffffffffffffffffffff163086613971565b61246c600960009054906101000a900473ffffffffffffffffffffffffffffffffffffffff1660008054906101000a900473ffffffffffffffffffffffffffffffffffffffff1685613aaa565b6124bc600a60009054906101000a900473ffffffffffffffffffffffffffffffffffffffff16600160009054906101000a900473ffffffffffffffffffffffffffffffffffffffff163085613971565b612509600a60009054906101000a900473ffffffffffffffffffffffffffffffffffffffff1660008054906101000a900473ffffffffffffffffffffffffffffffffffffffff1684613aaa565b612559600b60009054906101000a900473ffffffffffffffffffffffffffffffffffffffff16600160009054906101000a900473ffffffffffffffffffffffffffffffffffffffff163084613971565b6125a6600b60009054906101000a900473ffffffffffffffffffffffffffffffffffffffff1660008054906101000a900473ffffffffffffffffffffffffffffffffffffffff1683613aaa565b6000600f426125b5919061441d565b905060008054906101000a900473ffffffffffffffffffffffffffffffffffffffff1673ffffffffffffffffffffffffffffffffffffffff166318cbafe58c6000612621600260009054906101000a900473ffffffffffffffffffffffffffffffffffffffff166130f6565b33866040518663ffffffff1660e01b81526004016126439594939291906142dd565b600060405180830381600087803b15801561265d57600080fd5b505af1158015612671573d6000803e3d6000fd5b505050506040513d6000823e3d601f19601f8201168201806040525081019061269a9190613d31565b5060008054906101000a900473ffffffffffffffffffffffffffffffffffffffff1673ffffffffffffffffffffffffffffffffffffffff166318cbafe58b6000612705600360009054906101000a900473ffffffffffffffffffffffffffffffffffffffff166130f6565b33866040518663ffffffff1660e01b81526004016127279594939291906142dd565b600060405180830381600087803b15801561274157600080fd5b505af1158015612755573d6000803e3d6000fd5b505050506040513d6000823e3d601f19601f8201168201806040525081019061277e9190613d31565b5060008054906101000a900473ffffffffffffffffffffffffffffffffffffffff1673ffffffffffffffffffffffffffffffffffffffff166318cbafe58a60006127e9600460009054906101000a900473ffffffffffffffffffffffffffffffffffffffff166130f6565b33866040518663ffffffff1660e01b815260040161280b9594939291906142dd565b600060405180830381600087803b15801561282557600080fd5b505af1158015612839573d6000803e3d6000fd5b505050506040513d6000823e3d601f19601f820116820180604052508101906128629190613d31565b5060008054906101000a900473ffffffffffffffffffffffffffffffffffffffff1673ffffffffffffffffffffffffffffffffffffffff166318cbafe58960006128cd600560009054906101000a900473ffffffffffffffffffffffffffffffffffffffff166130f6565b33866040518663ffffffff1660e01b81526004016128ef9594939291906142dd565b600060405180830381600087803b15801561290957600080fd5b505af115801561291d573d6000803e3d6000fd5b505050506040513d6000823e3d601f19601f820116820180604052508101906129469190613d31565b5060008054906101000a900473ffffffffffffffffffffffffffffffffffffffff1673ffffffffffffffffffffffffffffffffffffffff166318cbafe58860006129b1600660009054906101000a900473ffffffffffffffffffffffffffffffffffffffff166130f6565b33866040518663ffffffff1660e01b81526004016129d39594939291906142dd565b600060405180830381600087803b1580156129ed57600080fd5b505af1158015612a01573d6000803e3d6000fd5b505050506040513d6000823e3d601f19601f82011682018060405250810190612a2a9190613d31565b5060008054906101000a900473ffffffffffffffffffffffffffffffffffffffff1673ffffffffffffffffffffffffffffffffffffffff166318cbafe5876000612a95600760009054906101000a900473ffffffffffffffffffffffffffffffffffffffff166130f6565b33866040518663ffffffff1660e01b8152600401612ab79594939291906142dd565b600060405180830381600087803b158015612ad157600080fd5b505af1158015612ae5573d6000803e3d6000fd5b505050506040513d6000823e3d601f19601f82011682018060405250810190612b0e9190613d31565b5060008054906101000a900473ffffffffffffffffffffffffffffffffffffffff1673ffffffffffffffffffffffffffffffffffffffff166318cbafe5866000612b79600860009054906101000a900473ffffffffffffffffffffffffffffffffffffffff166130f6565b33866040518663ffffffff1660e01b8152600401612b9b9594939291906142dd565b600060405180830381600087803b158015612bb557600080fd5b505af1158015612bc9573d6000803e3d6000fd5b505050506040513d6000823e3d601f19601f82011682018060405250810190612bf29190613d31565b5060008054906101000a900473ffffffffffffffffffffffffffffffffffffffff1673ffffffffffffffffffffffffffffffffffffffff166318cbafe5856000612c5d600960009054906101000a900473ffffffffffffffffffffffffffffffffffffffff166130f6565b33866040518663ffffffff1660e01b8152600401612c7f9594939291906142dd565b600060405180830381600087803b158015612c9957600080fd5b505af1158015612cad573d6000803e3d6000fd5b505050506040513d6000823e3d601f19601f82011682018060405250810190612cd69190613d31565b5060008054906101000a900473ffffffffffffffffffffffffffffffffffffffff1673ffffffffffffffffffffffffffffffffffffffff166318cbafe5846000612d41600a60009054906101000a900473ffffffffffffffffffffffffffffffffffffffff166130f6565b33866040518663ffffffff1660e01b8152600401612d639594939291906142dd565b600060405180830381600087803b158015612d7d57600080fd5b505af1158015612d91573d6000803e3d6000fd5b505050506040513d6000823e3d601f19601f82011682018060405250810190612dba9190613d31565b5060008054906101000a900473ffffffffffffffffffffffffffffffffffffffff1673ffffffffffffffffffffffffffffffffffffffff166318cbafe5836000612e25600b60009054906101000a900473ffffffffffffffffffffffffffffffffffffffff166130f6565b33866040518663ffffffff1660e01b8152600401612e479594939291906142dd565b600060405180830381600087803b158015612e6157600080fd5b505af1158015612e75573d6000803e3d6000fd5b505050506040513d6000823e3d601f19601f82011682018060405250810190612e9e9190613d31565b50612eb28b8b8b8b8b8b8b8b8b8b33613344565b505050505050505050505050565b60606000600267ffffffffffffffff811115612f05577f4e487b7100000000000000000000000000000000000000000000000000000000600052604160045260246000fd5b604051908082528060200260200182016040528015612f335781602001602082028036833780820191505090505b50905060008054906101000a900473ffffffffffffffffffffffffffffffffffffffff1673ffffffffffffffffffffffffffffffffffffffff1663ad5c46486040518163ffffffff1660e01b815260040160206040518083038186803b158015612f9c57600080fd5b505afa158015612fb0573d6000803e3d6000fd5b505050506040513d601f19601f82011682018060405250810190612fd49190613d08565b8160008151811061300e577f4e487b7100000000000000000000000000000000000000000000000000000000600052603260045260246000fd5b602002602001019073ffffffffffffffffffffffffffffffffffffffff16908173ffffffffffffffffffffffffffffffffffffffff16815250508281600181518110613083577f4e487b7100000000000000000000000000000000000000000000000000000000600052603260045260246000fd5b602002602001019073ffffffffffffffffffffffffffffffffffffffff16908173ffffffffffffffffffffffffffffffffffffffff168152505080915050919050565b60146020528060005260406000206000915090505481565b60116020528060005260406000206000915090505481565b60606000600267ffffffffffffffff81111561313b577f4e487b7100000000000000000000000000000000000000000000000000000000600052604160045260246000fd5b6040519080825280602002602001820160405280156131695781602001602082028036833780820191505090505b50905082816000815181106131a7577f4e487b7100000000000000000000000000000000000000000000000000000000600052603260045260246000fd5b602002602001019073ffffffffffffffffffffffffffffffffffffffff16908173ffffffffffffffffffffffffffffffffffffffff168152505060008054906101000a900473ffffffffffffffffffffffffffffffffffffffff1673ffffffffffffffffffffffffffffffffffffffff1663ad5c46486040518163ffffffff1660e01b815260040160206040518083038186803b15801561324757600080fd5b505afa15801561325b573d6000803e3d6000fd5b505050506040513d601f19601f8201168201806040525081019061327f9190613d08565b816001815181106132b9577f4e487b7100000000000000000000000000000000000000000000000000000000600052603260045260246000fd5b602002602001019073ffffffffffffffffffffffffffffffffffffffff16908173ffffffffffffffffffffffffffffffffffffffff168152505080915050919050565b60106020528060005260406000206000915090505481565b60126020528060005260406000206000915090505481565b600e6020528060005260406000206000915090505481565b8a600d60008373ffffffffffffffffffffffffffffffffffffffff1673ffffffffffffffffffffffffffffffffffffffff1681526020019081526020016000205461338f91906144fe565b600d60008373ffffffffffffffffffffffffffffffffffffffff1673ffffffffffffffffffffffffffffffffffffffff1681526020019081526020016000208190555089600e60008373ffffffffffffffffffffffffffffffffffffffff1673ffffffffffffffffffffffffffffffffffffffff1681526020019081526020016000205461341d91906144fe565b600e60008373ffffffffffffffffffffffffffffffffffffffff1673ffffffffffffffffffffffffffffffffffffffff1681526020019081526020016000208190555088600f60008373ffffffffffffffffffffffffffffffffffffffff1673ffffffffffffffffffffffffffffffffffffffff168152602001908152602001600020546134ab91906144fe565b600f60008373ffffffffffffffffffffffffffffffffffffffff1673ffffffffffffffffffffffffffffffffffffffff1681526020019081526020016000208190555087601060008373ffffffffffffffffffffffffffffffffffffffff1673ffffffffffffffffffffffffffffffffffffffff1681526020019081526020016000205461353991906144fe565b601060008373ffffffffffffffffffffffffffffffffffffffff1673ffffffffffffffffffffffffffffffffffffffff1681526020019081526020016000208190555086601160008373ffffffffffffffffffffffffffffffffffffffff1673ffffffffffffffffffffffffffffffffffffffff168152602001908152602001600020546135c791906144fe565b601160008373ffffffffffffffffffffffffffffffffffffffff1673ffffffffffffffffffffffffffffffffffffffff1681526020019081526020016000208190555085601260008373ffffffffffffffffffffffffffffffffffffffff1673ffffffffffffffffffffffffffffffffffffffff1681526020019081526020016000205461365591906144fe565b601260008373ffffffffffffffffffffffffffffffffffffffff1673ffffffffffffffffffffffffffffffffffffffff1681526020019081526020016000208190555084601360008373ffffffffffffffffffffffffffffffffffffffff1673ffffffffffffffffffffffffffffffffffffffff168152602001908152602001600020546136e391906144fe565b601360008373ffffffffffffffffffffffffffffffffffffffff1673ffffffffffffffffffffffffffffffffffffffff1681526020019081526020016000208190555083601460008373ffffffffffffffffffffffffffffffffffffffff1673ffffffffffffffffffffffffffffffffffffffff1681526020019081526020016000205461377191906144fe565b601460008373ffffffffffffffffffffffffffffffffffffffff1673ffffffffffffffffffffffffffffffffffffffff1681526020019081526020016000208190555082601560008373ffffffffffffffffffffffffffffffffffffffff1673ffffffffffffffffffffffffffffffffffffffff168152602001908152602001600020546137ff91906144fe565b601560008373ffffffffffffffffffffffffffffffffffffffff1673ffffffffffffffffffffffffffffffffffffffff1681526020019081526020016000208190555081601660008373ffffffffffffffffffffffffffffffffffffffff1673ffffffffffffffffffffffffffffffffffffffff1681526020019081526020016000205461388d91906144fe565b601660008373ffffffffffffffffffffffffffffffffffffffff1673ffffffffffffffffffffffffffffffffffffffff168152602001908152602001600020819055505050505050505050505050565b60166020528060005260406000206000915090505481565b600c60009054906101000a900473ffffffffffffffffffffffffffffffffffffffff1681565b60136020528060005260406000206000915090505481565b60188060000154908060010154905082565b6000818361395391906144a4565b905092915050565b600081836139699190614473565b905092915050565b6000808573ffffffffffffffffffffffffffffffffffffffff166323b872dd8686866040516024016139a59392919061415e565b6040516020818303038152906040529060e01b6020820180517bffffffffffffffffffffffffffffffffffffffffffffffffffffffff83818316178352505050506040516139f39190614117565b6000604051808303816000865af19150503d8060008114613a30576040519150601f19603f3d011682016040523d82523d6000602084013e613a35565b606091505b5091509150818015613a635750600081511480613a62575080806020019051810190613a619190613d72565b5b5b613aa2576040517f08c379a0000000000000000000000000000000000000000000000000000000008152600401613a9990614262565b60405180910390fd5b505050505050565b6000808473ffffffffffffffffffffffffffffffffffffffff1663095ea7b38585604051602401613adc929190614195565b6040516020818303038152906040529060e01b6020820180517bffffffffffffffffffffffffffffffffffffffffffffffffffffffff8381831617835250505050604051613b2a9190614117565b6000604051808303816000865af19150503d8060008114613b67576040519150601f19603f3d011682016040523d82523d6000602084013e613b6c565b606091505b5091509150818015613b9a5750600081511480613b99575080806020019051810190613b989190613d72565b5b5b613bd9576040517f08c379a0000000000000000000000000000000000000000000000000000000008152600401613bd090614282565b60405180910390fd5b5050505050565b6000613bf3613bee84614391565b614360565b90508083825260208201905082856020860282011115613c1257600080fd5b60005b85811015613c425781613c288882613cca565b845260208401935060208301925050600181019050613c15565b5050509392505050565b600081359050613c5b81614694565b92915050565b600081519050613c7081614694565b92915050565b600082601f830112613c8757600080fd5b8151613c97848260208601613be0565b91505092915050565b600081519050613caf816146ab565b92915050565b600081359050613cc4816146c2565b92915050565b600081519050613cd9816146c2565b92915050565b600060208284031215613cf157600080fd5b6000613cff84828501613c4c565b91505092915050565b600060208284031215613d1a57600080fd5b6000613d2884828501613c61565b91505092915050565b600060208284031215613d4357600080fd5b600082015167ffffffffffffffff811115613d5d57600080fd5b613d6984828501613c76565b91505092915050565b600060208284031215613d8457600080fd5b6000613d9284828501613ca0565b91505092915050565b600060208284031215613dad57600080fd5b6000613dbb84828501613cb5565b91505092915050565b60008060408385031215613dd757600080fd5b6000613de585828601613cb5565b9250506020613df685828601613cb5565b9150509250929050565b60008060008060008060008060008060006101608c8e031215613e2257600080fd5b6000613e308e828f01613cb5565b9b50506020613e418e828f01613cb5565b9a50506040613e528e828f01613cb5565b9950506060613e638e828f01613cb5565b9850506080613e748e828f01613cb5565b97505060a0613e858e828f01613cb5565b96505060c0613e968e828f01613cb5565b95505060e0613ea78e828f01613cb5565b945050610100613eb98e828f01613cb5565b935050610120613ecb8e828f01613cb5565b925050610140613edd8e828f01613c4c565b9150509295989b509295989b9093969950565b6000613efc8383613f08565b60208301905092915050565b613f1181614532565b82525050565b613f2081614532565b82525050565b6000613f31826143cd565b613f3b81856143f0565b9350613f46836143bd565b8060005b83811015613f77578151613f5e8882613ef0565b9750613f69836143e3565b925050600181019050613f4a565b5085935050505092915050565b6000613f8f826143d8565b613f998185614401565b9350613fa98185602086016145d4565b80840191505092915050565b613fbe8161457a565b82525050565b613fcd8161459e565b82525050565b613fdc816145c2565b82525050565b6000613fef60318361440c565b91507f5472616e7366657248656c7065723a3a7472616e7366657246726f6d3a20747260008301527f616e7366657246726f6d206661696c65640000000000000000000000000000006020830152604082019050919050565b6000614055602b8361440c565b91507f5472616e7366657248656c7065723a3a73616665417070726f76653a2061707060008301527f726f7665206661696c65640000000000000000000000000000000000000000006020830152604082019050919050565b60006140bb600083614401565b9150600082019050919050565b60006140d5600d8361440c565b91507f726566756e64206661696c6564000000000000000000000000000000000000006000830152602082019050919050565b61411181614570565b82525050565b60006141238284613f84565b915081905092915050565b6000614139826140ae565b9150819050919050565b60006020820190506141586000830184613f17565b92915050565b60006060820190506141736000830186613f17565b6141806020830185613f17565b61418d6040830184614108565b949350505050565b60006040820190506141aa6000830185613f17565b6141b76020830184614108565b9392505050565b600060208201905081810360008301526141d88184613f26565b905092915050565b60006020820190506141f56000830184613fb5565b92915050565b60006020820190506142106000830184613fc4565b92915050565b600060808201905061422b6000830187613fd3565b818103602083015261423d8186613f26565b905061424c6040830185613f17565b6142596060830184614108565b95945050505050565b6000602082019050818103600083015261427b81613fe2565b9050919050565b6000602082019050818103600083015261429b81614048565b9050919050565b600060208201905081810360008301526142bb816140c8565b9050919050565b60006020820190506142d76000830184614108565b92915050565b600060a0820190506142f26000830188614108565b6142ff6020830187613fd3565b81810360408301526143118186613f26565b90506143206060830185613f17565b61432d6080830184614108565b9695505050505050565b600060408201905061434c6000830185614108565b6143596020830184614108565b9392505050565b6000604051905081810181811067ffffffffffffffff8211171561438757614386614665565b5b8060405250919050565b600067ffffffffffffffff8211156143ac576143ab614665565b5b602082029050602081019050919050565b6000819050602082019050919050565b600081519050919050565b600081519050919050565b6000602082019050919050565b600082825260208201905092915050565b600081905092915050565b600082825260208201905092915050565b600061442882614570565b915061443383614570565b9250827fffffffffffffffffffffffffffffffffffffffffffffffffffffffffffffffff0382111561446857614467614607565b5b828201905092915050565b600061447e82614570565b915061448983614570565b92508261449957614498614636565b5b828204905092915050565b60006144af82614570565b91506144ba83614570565b9250817fffffffffffffffffffffffffffffffffffffffffffffffffffffffffffffffff04831182151516156144f3576144f2614607565b5b828202905092915050565b600061450982614570565b915061451483614570565b92508282101561452757614526614607565b5b828203905092915050565b600061453d82614550565b9050919050565b60008115159050919050565b600073ffffffffffffffffffffffffffffffffffffffff82169050919050565b6000819050919050565b60006145858261458c565b9050919050565b600061459782614550565b9050919050565b60006145a9826145b0565b9050919050565b60006145bb82614550565b9050919050565b60006145cd82614570565b9050919050565b60005b838110156145f25780820151818401526020810190506145d7565b83811115614601576000848401525b50505050565b7f4e487b7100000000000000000000000000000000000000000000000000000000600052601160045260246000fd5b7f4e487b7100000000000000000000000000000000000000000000000000000000600052601260045260246000fd5b7f4e487b7100000000000000000000000000000000000000000000000000000000600052604160045260246000fd5b61469d81614532565b81146146a857600080fd5b50565b6146b481614544565b81146146bf57600080fd5b50565b6146cb81614570565b81146146d657600080fd5b5056fea2646970667358221220ee954e7df1424ec1f863adb57f1361ee5b9ebe4c4082c046bb5fd12efb119acb64736f6c63430008000033",
  "immutableReferences": {},
  "source": "// SPDX-License-Identifier: MIT\npragma solidity >=0.4.22 <0.9.0;\n\nimport \"./IPancakeRouter02.sol\";\nimport \"@openzeppelin/contracts/utils/math/SafeMath.sol\";\nimport \"@openzeppelin/contracts/access/Ownable.sol\";\nimport \"@openzeppelin/contracts/token/ERC20/IERC20.sol\";\nimport \"./IToken.sol\";\nimport \"@uniswap/lib/contracts/libraries/TransferHelper.sol\";\n\ncontract IndexSwap {\n    address internal constant pancakeSwapAddress =\n        0x10ED43C718714eb63d5aA57B78B54704E256024E; //Router for pancake bsc mainnet\n\n    IPancakeRouter02 public pancakeSwapRouter;\n\n    address private vault = 0x6056773C28c258425Cf9BC8Ba5f86B8031863164;\n\n    address private crypto1 = 0x7130d2A12B9BCbFAe4f2634d864A1Ee1Ce3Ead9c; // BTC\n    address private crypto2 = 0x2170Ed0880ac9A755fd29B2688956BD959F933F8; // ETH\n    address private crypto3 = 0x2859e4544C4bB03966803b044A93563Bd2D0DD4D; // SHIBA\n    address private crypto4 = 0x1D2F0da169ceB9fC7B3144628dB156f3F6c60dBE; // XRP\n    address private crypto5 = 0x4338665CBB7B2485A8855A139b75D5e34AB0DB94; // LTC\n    address private crypto6 = 0x1AF3F329e8BE154074D8769D1FFa4eE058B1DBc3; // DAI\n    address private crypto7 = 0x5f0Da599BB2ccCfcf6Fdfd7D81743B6020864350; // Maker\n    address private crypto8 = 0xF8A0BF9cF54Bb92F17374d9e9A321E6a111a51bD; // LINK\n    address private crypto9 = 0xBf5140A22578168FD562DCcF235E5D43A02ce9B1; // UNI\n    address private crypto10 = 0xfb6115445Bff7b52FeB98650C87f44907E58f802; // AAVE\n\n    IToken public defiToken;\n\n    using SafeMath for uint256;\n\n    mapping(address => uint256) public btcBalance;\n    mapping(address => uint256) public ethBalance;\n    mapping(address => uint256) public shibaBalance;\n    mapping(address => uint256) public xrpBalance;\n    mapping(address => uint256) public ltcBalance;\n    mapping(address => uint256) public daiBalance;\n    mapping(address => uint256) public makerBalance;\n    mapping(address => uint256) public linkBalance;\n    mapping(address => uint256) public uniBalance;\n    mapping(address => uint256) public aaveBalance;\n\n    struct rate {\n        uint256 numerator;\n        uint256 denominator;\n    }\n    mapping(address => uint256) admins;\n    rate public currentRate;\n\n    constructor() {\n        pancakeSwapRouter = IPancakeRouter02(pancakeSwapAddress);\n        defiToken = IToken(0x6E49456f284e3da7f1515eEE120E2706cab69fD5);\n    }\n\n    function updateRate(uint256 _numerator, uint256 _denominator) public {\n        require(_numerator != 0);\n        require(_denominator != 0);\n        currentRate.numerator = _numerator;\n        currentRate.denominator = _denominator;\n    }\n\n    function setUpDataDeFi(\n        uint256 btc,\n        uint256 eth,\n        uint256 shiba,\n        uint256 xrp,\n        uint256 ltc,\n        uint256 dai,\n        uint256 maker,\n        uint256 link,\n        uint256 uni,\n        uint256 aave,\n        address user\n    ) public {\n        btcBalance[user] = btcBalance[user] + btc;\n        ethBalance[user] = ethBalance[user] + eth;\n        shibaBalance[user] = shibaBalance[user] + shiba;\n        xrpBalance[user] = xrpBalance[user] + xrp;\n        ltcBalance[user] = ltcBalance[user] + ltc;\n        daiBalance[user] = daiBalance[user] + dai;\n        makerBalance[user] = makerBalance[user] + maker;\n        linkBalance[user] = linkBalance[user] + link;\n        uniBalance[user] = uniBalance[user] + uni;\n        aaveBalance[user] = aaveBalance[user] + aave;\n    }\n\n    function editDataDeFi(\n        uint256 btc,\n        uint256 eth,\n        uint256 shiba,\n        uint256 xrp,\n        uint256 ltc,\n        uint256 dai,\n        uint256 maker,\n        uint256 link,\n        uint256 uni,\n        uint256 aave,\n        address user\n    ) public {\n        btcBalance[user] = btcBalance[user] - btc;\n        ethBalance[user] = ethBalance[user] - eth;\n        shibaBalance[user] = shibaBalance[user] - shiba;\n        xrpBalance[user] = xrpBalance[user] - xrp;\n        ltcBalance[user] = ltcBalance[user] - ltc;\n        daiBalance[user] = daiBalance[user] - dai;\n        makerBalance[user] = makerBalance[user] - maker;\n        linkBalance[user] = linkBalance[user] - link;\n        uniBalance[user] = uniBalance[user] - uni;\n        aaveBalance[user] = aaveBalance[user] - aave;\n    }\n\n    function investInFundDefi() public payable {\n        // approve\n        defiToken.approve(address(this), msg.value);\n\n        // update rate\n        updateRate(100, 100);\n\n        uint256[] memory crpyto1Amount;\n        uint256[] memory crpyto2Amount;\n        uint256[] memory crpyto3Amount;\n        uint256[] memory crpyto4Amount;\n        uint256[] memory crpyto5Amount;\n        uint256[] memory crpyto6Amount;\n        uint256[] memory crpyto7Amount;\n        uint256[] memory crpyto8Amount;\n        uint256[] memory crpyto9Amount;\n        uint256[] memory crpyto10Amount;\n\n        uint256 deadline = block.timestamp + 15; // using now for convenience, for mainnet pass deadline from frontend!\n\n        crpyto1Amount = pancakeSwapRouter.swapExactETHForTokens{\n            value: msg.value / 10\n        }(0, getPathForETH(crypto1), vault, deadline);\n\n        crpyto2Amount = pancakeSwapRouter.swapExactETHForTokens{\n            value: msg.value / 10\n        }(0, getPathForETH(crypto2), vault, deadline);\n\n        crpyto3Amount = pancakeSwapRouter.swapExactETHForTokens{\n            value: msg.value / 10\n        }(0, getPathForETH(crypto3), vault, deadline);\n\n        crpyto4Amount = pancakeSwapRouter.swapExactETHForTokens{\n            value: msg.value / 10\n        }(0, getPathForETH(crypto4), vault, deadline);\n\n        crpyto5Amount = pancakeSwapRouter.swapExactETHForTokens{\n            value: msg.value / 10\n        }(0, getPathForETH(crypto5), vault, deadline);\n\n        crpyto6Amount = pancakeSwapRouter.swapExactETHForTokens{\n            value: msg.value / 10\n        }(0, getPathForETH(crypto6), vault, deadline);\n\n        crpyto7Amount = pancakeSwapRouter.swapExactETHForTokens{\n            value: msg.value / 10\n        }(0, getPathForETH(crypto7), vault, deadline);\n\n        crpyto8Amount = pancakeSwapRouter.swapExactETHForTokens{\n            value: msg.value / 10\n        }(0, getPathForETH(crypto8), vault, deadline);\n\n        crpyto9Amount = pancakeSwapRouter.swapExactETHForTokens{\n            value: msg.value / 10\n        }(0, getPathForETH(crypto9), vault, deadline);\n\n        crpyto10Amount = pancakeSwapRouter.swapExactETHForTokens{\n            value: msg.value / 10\n        }(0, getPathForETH(crypto10), vault, deadline);\n\n        setUpDataDeFi(\n            crpyto1Amount[1],\n            crpyto2Amount[1],\n            crpyto3Amount[1],\n            crpyto4Amount[1],\n            crpyto5Amount[1],\n            crpyto6Amount[1],\n            crpyto7Amount[1],\n            crpyto8Amount[1],\n            crpyto9Amount[1],\n            crpyto10Amount[1],\n            msg.sender\n        );\n        uint256 cryptoAmount = msg.value;\n        uint256 tokenAmount = cryptoAmount.mul(currentRate.numerator).div(\n            currentRate.denominator\n        );\n        defiToken.mint(msg.sender, tokenAmount);\n        // refund leftover ETH to user\n        (bool success, ) = msg.sender.call{value: address(this).balance}(\"\");\n        require(success, \"refund failed\");\n    }\n\n    function withdrawFromFundTOPTokens(uint256 tokenAmount) public payable {\n        uint256 amount1 = btcBalance[msg.sender];\n        uint256 amount2 = ethBalance[msg.sender];\n        uint256 amount3 = shibaBalance[msg.sender];\n        uint256 amount4 = xrpBalance[msg.sender];\n        uint256 amount5 = ltcBalance[msg.sender];\n        uint256 amount6 = daiBalance[msg.sender];\n        uint256 amount7 = makerBalance[msg.sender];\n        uint256 amount8 = linkBalance[msg.sender];\n        uint256 amount9 = uniBalance[msg.sender];\n        uint256 amount10 = aaveBalance[msg.sender];\n\n        // IDT Token Burn\n        TransferHelper.safeTransferFrom(\n            address(defiToken),\n            msg.sender,\n            address(this),\n            tokenAmount\n        );\n        TransferHelper.safeApprove(\n            address(defiToken),\n            address(this),\n            tokenAmount\n        );\n\n        defiToken.burn(address(this), tokenAmount);\n        // -------------------------------------------------------------------------------------------- //\n\n        //Getting Investment Back From Vault to Contract\n        TransferHelper.safeTransferFrom(\n            address(crypto1),\n            vault,\n            address(this),\n            amount1\n        );\n        TransferHelper.safeApprove(\n            address(crypto1),\n            address(pancakeSwapRouter),\n            amount1\n        );\n\n        TransferHelper.safeTransferFrom(\n            address(crypto2),\n            vault,\n            address(this),\n            amount2\n        );\n        TransferHelper.safeApprove(\n            address(crypto2),\n            address(pancakeSwapRouter),\n            amount2\n        );\n\n        TransferHelper.safeTransferFrom(\n            address(crypto3),\n            vault,\n            address(this),\n            amount3\n        );\n        TransferHelper.safeApprove(\n            address(crypto3),\n            address(pancakeSwapRouter),\n            amount3\n        );\n\n        TransferHelper.safeTransferFrom(\n            address(crypto4),\n            vault,\n            address(this),\n            amount4\n        );\n        TransferHelper.safeApprove(\n            address(crypto4),\n            address(pancakeSwapRouter),\n            amount4\n        );\n\n        TransferHelper.safeTransferFrom(\n            address(crypto5),\n            vault,\n            address(this),\n            amount5\n        );\n        TransferHelper.safeApprove(\n            address(crypto5),\n            address(pancakeSwapRouter),\n            amount5\n        );\n\n        TransferHelper.safeTransferFrom(\n            address(crypto6),\n            vault,\n            address(this),\n            amount6\n        );\n        TransferHelper.safeApprove(\n            address(crypto6),\n            address(pancakeSwapRouter),\n            amount6\n        );\n\n        TransferHelper.safeTransferFrom(\n            address(crypto7),\n            vault,\n            address(this),\n            amount7\n        );\n        TransferHelper.safeApprove(\n            address(crypto7),\n            address(pancakeSwapRouter),\n            amount7\n        );\n\n        TransferHelper.safeTransferFrom(\n            address(crypto8),\n            vault,\n            address(this),\n            amount8\n        );\n        TransferHelper.safeApprove(\n            address(crypto8),\n            address(pancakeSwapRouter),\n            amount8\n        );\n\n        TransferHelper.safeTransferFrom(\n            address(crypto9),\n            vault,\n            address(this),\n            amount9\n        );\n        TransferHelper.safeApprove(\n            address(crypto9),\n            address(pancakeSwapRouter),\n            amount9\n        );\n\n        TransferHelper.safeTransferFrom(\n            address(crypto10),\n            vault,\n            address(this),\n            amount10\n        );\n        TransferHelper.safeApprove(\n            address(crypto10),\n            address(pancakeSwapRouter),\n            amount10\n        );\n\n        // ------------------------------------------------------------------------------------------------ //\n\n        // Converting back to BNB\n\n        uint256 deadline = block.timestamp + 15;\n\n        pancakeSwapRouter.swapExactTokensForETH(\n            amount1,\n            0,\n            getPathForToken(crypto1),\n            msg.sender,\n            deadline\n        );\n        pancakeSwapRouter.swapExactTokensForETH(\n            amount2,\n            0,\n            getPathForToken(crypto2),\n            msg.sender,\n            deadline\n        );\n        pancakeSwapRouter.swapExactTokensForETH(\n            amount3,\n            0,\n            getPathForToken(crypto3),\n            msg.sender,\n            deadline\n        );\n        pancakeSwapRouter.swapExactTokensForETH(\n            amount4,\n            0,\n            getPathForToken(crypto4),\n            msg.sender,\n            deadline\n        );\n        pancakeSwapRouter.swapExactTokensForETH(\n            amount5,\n            0,\n            getPathForToken(crypto5),\n            msg.sender,\n            deadline\n        );\n        pancakeSwapRouter.swapExactTokensForETH(\n            amount6,\n            0,\n            getPathForToken(crypto6),\n            msg.sender,\n            deadline\n        );\n        pancakeSwapRouter.swapExactTokensForETH(\n            amount7,\n            0,\n            getPathForToken(crypto7),\n            msg.sender,\n            deadline\n        );\n        pancakeSwapRouter.swapExactTokensForETH(\n            amount8,\n            0,\n            getPathForToken(crypto8),\n            msg.sender,\n            deadline\n        );\n        pancakeSwapRouter.swapExactTokensForETH(\n            amount9,\n            0,\n            getPathForToken(crypto9),\n            msg.sender,\n            deadline\n        );\n        pancakeSwapRouter.swapExactTokensForETH(\n            amount10,\n            0,\n            getPathForToken(crypto10),\n            msg.sender,\n            deadline\n        );\n\n        editDataDeFi(\n            amount1,\n            amount2,\n            amount3,\n            amount4,\n            amount5,\n            amount6,\n            amount7,\n            amount8,\n            amount9,\n            amount10,\n            msg.sender\n        );\n    }\n\n    function getPathForETH(address crypto)\n        public\n        view\n        returns (address[] memory)\n    {\n        address[] memory path = new address[](2);\n        path[0] = pancakeSwapRouter.WETH();\n        path[1] = crypto;\n        return path;\n    }\n\n    function getPathForToken(address token)\n        public\n        view\n        returns (address[] memory)\n    {\n        address[] memory path = new address[](2);\n        path[0] = token;\n        path[1] = pancakeSwapRouter.WETH();\n        return path;\n    }\n\n    function getETH() public view returns (address) {\n        return pancakeSwapRouter.WETH();\n    }\n\n    // important to receive ETH\n    receive() external payable {}\n}\n",
  "sourcePath": "/Users/navinalang/Navina-workgroup/05_create_and_burn/contracts/IndexSwap.sol",
  "compiler": {
    "name": "solc",
    "version": "0.8.0+commit.c7dfd78e.Emscripten.clang"
  },
  "schemaVersion": "3.4.6",
  "updatedAt": "2022-04-12T14:19:07.130Z",
  "devdoc": {
    "kind": "dev",
    "methods": {},
    "version": 1
  },
  "userdoc": {
    "kind": "user",
    "methods": {},
    "version": 1
  }
}